{
  "contractName": "UniversityCredential",
  "abi": [
    {
      "inputs": [],
      "stateMutability": "nonpayable",
      "type": "constructor"
    },
    {
      "anonymous": false,
      "inputs": [
        {
          "indexed": true,
          "internalType": "uint256",
          "name": "credentialId",
          "type": "uint256"
        },
        {
          "indexed": true,
          "internalType": "address",
          "name": "issuer",
          "type": "address"
        },
        {
          "indexed": true,
          "internalType": "address",
          "name": "user",
          "type": "address"
        },
        {
          "indexed": false,
          "internalType": "string",
          "name": "credentialType",
          "type": "string"
        },
        {
          "indexed": false,
          "internalType": "bytes32",
          "name": "documentHash",
          "type": "bytes32"
        }
      ],
      "name": "CredentialIssued",
      "type": "event"
    },
    {
      "anonymous": false,
      "inputs": [
        {
          "indexed": true,
          "internalType": "uint256",
          "name": "credentialId",
          "type": "uint256"
        }
      ],
      "name": "CredentialRevoked",
      "type": "event"
    },
    {
      "anonymous": false,
      "inputs": [
        {
          "indexed": true,
          "internalType": "uint256",
          "name": "credentialId",
          "type": "uint256"
        },
        {
          "indexed": false,
          "internalType": "bool",
          "name": "isValid",
          "type": "bool"
        }
      ],
      "name": "CredentialVerified",
      "type": "event"
    },
    {
      "anonymous": false,
      "inputs": [
        {
          "indexed": true,
          "internalType": "address",
          "name": "issuer",
          "type": "address"
        }
      ],
      "name": "IssuerApproved",
      "type": "event"
    },
    {
      "inputs": [],
      "name": "admin",
      "outputs": [
        {
          "internalType": "address",
          "name": "",
          "type": "address"
        }
      ],
      "stateMutability": "view",
      "type": "function",
      "constant": true
    },
    {
      "inputs": [
        {
          "internalType": "address",
          "name": "",
          "type": "address"
        }
      ],
      "name": "approvedIssuers",
      "outputs": [
        {
          "internalType": "bool",
          "name": "",
          "type": "bool"
        }
      ],
      "stateMutability": "view",
      "type": "function",
      "constant": true
    },
    {
      "inputs": [],
      "name": "credentialCount",
      "outputs": [
        {
          "internalType": "uint256",
          "name": "",
          "type": "uint256"
        }
      ],
      "stateMutability": "view",
      "type": "function",
      "constant": true
    },
    {
      "inputs": [
        {
          "internalType": "uint256",
          "name": "",
          "type": "uint256"
        }
      ],
      "name": "credentials",
      "outputs": [
        {
          "internalType": "address",
          "name": "issuer",
          "type": "address"
        },
        {
          "internalType": "address",
          "name": "user",
          "type": "address"
        },
        {
          "internalType": "string",
          "name": "credentialType",
          "type": "string"
        },
        {
          "internalType": "bytes32",
          "name": "documentHash",
          "type": "bytes32"
        },
        {
          "internalType": "string",
          "name": "ipfsCID",
          "type": "string"
        },
        {
          "internalType": "bool",
          "name": "isRevoked",
          "type": "bool"
        },
        {
          "internalType": "uint256",
          "name": "issuedAt",
          "type": "uint256"
        }
      ],
      "stateMutability": "view",
      "type": "function",
      "constant": true
    },
    {
      "inputs": [
        {
          "internalType": "address",
          "name": "issuer",
          "type": "address"
        }
      ],
      "name": "ApproveIssuers",
      "outputs": [],
      "stateMutability": "nonpayable",
      "type": "function"
    },
    {
      "inputs": [
        {
          "internalType": "address",
          "name": "issuer",
          "type": "address"
        }
      ],
      "name": "RevokeIssuers",
      "outputs": [],
      "stateMutability": "nonpayable",
      "type": "function"
    },
    {
      "inputs": [
        {
          "internalType": "address",
          "name": "user",
          "type": "address"
        },
        {
          "internalType": "string",
          "name": "credentialType",
          "type": "string"
        },
        {
          "internalType": "bytes32",
          "name": "documentHash",
          "type": "bytes32"
        },
        {
          "internalType": "string",
          "name": "ipfsCID",
          "type": "string"
        }
      ],
      "name": "IssueCredential",
      "outputs": [
        {
          "internalType": "uint256",
          "name": "credentialId",
          "type": "uint256"
        }
      ],
      "stateMutability": "nonpayable",
      "type": "function"
    },
    {
      "inputs": [
        {
          "internalType": "uint256",
          "name": "credentialId",
          "type": "uint256"
        }
      ],
      "name": "RevokeCredential",
      "outputs": [],
      "stateMutability": "nonpayable",
      "type": "function"
    },
    {
      "inputs": [
        {
          "internalType": "uint256",
          "name": "credentialId",
          "type": "uint256"
        },
        {
          "internalType": "bytes32",
          "name": "documentHash",
          "type": "bytes32"
        }
      ],
      "name": "VerifyCredential",
      "outputs": [
        {
          "internalType": "bool",
          "name": "isValid",
          "type": "bool"
        }
      ],
      "stateMutability": "nonpayable",
      "type": "function"
    },
    {
      "inputs": [
        {
          "internalType": "uint256",
          "name": "credentialId",
          "type": "uint256"
        },
        {
          "internalType": "bytes32",
          "name": "documentHash",
          "type": "bytes32"
        }
      ],
      "name": "CheckCredential",
      "outputs": [
        {
          "internalType": "bool",
          "name": "",
          "type": "bool"
        }
      ],
      "stateMutability": "view",
      "type": "function",
      "constant": true
    },
    {
      "inputs": [
        {
          "internalType": "uint256",
          "name": "credentialId",
          "type": "uint256"
        }
      ],
      "name": "GetCredential",
      "outputs": [
        {
          "components": [
            {
              "internalType": "address",
              "name": "issuer",
              "type": "address"
            },
            {
              "internalType": "address",
              "name": "user",
              "type": "address"
            },
            {
              "internalType": "string",
              "name": "credentialType",
              "type": "string"
            },
            {
              "internalType": "bytes32",
              "name": "documentHash",
              "type": "bytes32"
            },
            {
              "internalType": "string",
              "name": "ipfsCID",
              "type": "string"
            },
            {
              "internalType": "bool",
              "name": "isRevoked",
              "type": "bool"
            },
            {
              "internalType": "uint256",
              "name": "issuedAt",
              "type": "uint256"
            }
          ],
          "internalType": "struct UniversityCredential.Credential",
          "name": "",
          "type": "tuple"
        }
      ],
      "stateMutability": "view",
      "type": "function",
      "constant": true
    }
  ],
  "bytecode": "0x608060405234801561001057600080fd5b50336000806101000a81548173ffffffffffffffffffffffffffffffffffffffff021916908373ffffffffffffffffffffffffffffffffffffffff160217905550611e56806100606000396000f3fe608060405234801561001057600080fd5b50600436106100a95760003560e01c8063cd0e35b911610071578063cd0e35b91461018a578063e0574e3f146101a8578063e4a9d9ab146101de578063eb34374b146101fa578063f851a44014610216578063fb87b9e714610234576100a9565b806350b246dd146100ae578063655e2737146100de5780637d2f47441461010e57806396f0d6aa1461012a578063978c79141461015a575b600080fd5b6100c860048036038101906100c39190611121565b610264565b6040516100d5919061117c565b60405180910390f35b6100f860048036038101906100f39190611197565b6102a7565b6040516101059190611365565b60405180910390f35b61012860048036038101906101239190611197565b610578565b005b610144600480360381019061013f9190611121565b6106c1565b604051610151919061117c565b60405180910390f35b610174600480360381019061016f9190611418565b6107cf565b60405161018191906114ce565b60405180910390f35b610192610bd0565b60405161019f91906114ce565b60405180910390f35b6101c260048036038101906101bd9190611197565b610bd6565b6040516101d59796959493929190611551565b60405180910390f35b6101f860048036038101906101f391906115ce565b610d75565b005b610214600480360381019061020f91906115ce565b610e5e565b005b61021e610ff9565b60405161022b91906115fb565b60405180910390f35b61024e600480360381019061024991906115ce565b61101d565b60405161025b919061117c565b60405180910390f35b60008060016000858152602001908152602001600020905082816003015414801561029e57508060050160009054906101000a900460ff16155b91505092915050565b6102af61103d565b600073ffffffffffffffffffffffffffffffffffffffff166001600084815260200190815260200160002060000160009054906101000a900473ffffffffffffffffffffffffffffffffffffffff1673ffffffffffffffffffffffffffffffffffffffff1603610354576040517f08c379a000000000000000000000000000000000000000000000000000000000815260040161034b90611662565b60405180910390fd5b600160008381526020019081526020016000206040518060e00160405290816000820160009054906101000a900473ffffffffffffffffffffffffffffffffffffffff1673ffffffffffffffffffffffffffffffffffffffff1673ffffffffffffffffffffffffffffffffffffffff1681526020016001820160009054906101000a900473ffffffffffffffffffffffffffffffffffffffff1673ffffffffffffffffffffffffffffffffffffffff1673ffffffffffffffffffffffffffffffffffffffff16815260200160028201805461042e906116b1565b80601f016020809104026020016040519081016040528092919081815260200182805461045a906116b1565b80156104a75780601f1061047c576101008083540402835291602001916104a7565b820191906000526020600020905b81548152906001019060200180831161048a57829003601f168201915b50505050508152602001600382015481526020016004820180546104ca906116b1565b80601f01602080910402602001604051908101604052809291908181526020018280546104f6906116b1565b80156105435780601f1061051857610100808354040283529160200191610543565b820191906000526020600020905b81548152906001019060200180831161052657829003601f168201915b505050505081526020016005820160009054906101000a900460ff161515151581526020016006820154815250509050919050565b60006001600083815260200190815260200160002090503373ffffffffffffffffffffffffffffffffffffffff168160000160009054906101000a900473ffffffffffffffffffffffffffffffffffffffff1673ffffffffffffffffffffffffffffffffffffffff1614610621576040517f08c379a000000000000000000000000000000000000000000000000000000000815260040161061890611754565b60405180910390fd5b8060050160009054906101000a900460ff1615610673576040517f08c379a000000000000000000000000000000000000000000000000000000000815260040161066a906117c0565b60405180910390fd5b60018160050160006101000a81548160ff021916908315150217905550817f0d47d5695004d2a4180ebb40037756439184993a0d1c6d4a8ff3a6aa9325607460405160405180910390a25050565b600080600160008581526020019081526020016000209050600073ffffffffffffffffffffffffffffffffffffffff168160000160009054906101000a900473ffffffffffffffffffffffffffffffffffffffff1673ffffffffffffffffffffffffffffffffffffffff160361076c576040517f08c379a000000000000000000000000000000000000000000000000000000000815260040161076390611662565b60405180910390fd5b82816003015414801561078e57508060050160009054906101000a900460ff16155b9150837f0e6a32061c6a9d5c696056c3b70b8d34949651d89be5e95e7df65310a0190382836040516107c0919061117c565b60405180910390a25092915050565b6000600260003373ffffffffffffffffffffffffffffffffffffffff1673ffffffffffffffffffffffffffffffffffffffff16815260200190815260200160002060009054906101000a900460ff1661085d576040517f08c379a00000000000000000000000000000000000000000000000000000000081526004016108549061182c565b60405180910390fd5b600073ffffffffffffffffffffffffffffffffffffffff168773ffffffffffffffffffffffffffffffffffffffff16036108cc576040517f08c379a00000000000000000000000000000000000000000000000000000000081526004016108c390611898565b60405180910390fd5b6000801b8403610911576040517f08c379a000000000000000000000000000000000000000000000000000000000815260040161090890611904565b60405180910390fd5b60008383905011610957576040517f08c379a000000000000000000000000000000000000000000000000000000000815260040161094e90611970565b60405180910390fd5b600360008154610966906119bf565b91905081905590506040518060e001604052803373ffffffffffffffffffffffffffffffffffffffff1681526020018873ffffffffffffffffffffffffffffffffffffffff16815260200187878080601f016020809104026020016040519081016040528093929190818152602001838380828437600081840152601f19601f82011690508083019250505050505050815260200185815260200184848080601f016020809104026020016040519081016040528093929190818152602001838380828437600081840152601f19601f820116905080830192505050505050508152602001600015158152602001428152506001600083815260200190815260200160002060008201518160000160006101000a81548173ffffffffffffffffffffffffffffffffffffffff021916908373ffffffffffffffffffffffffffffffffffffffff16021790555060208201518160010160006101000a81548173ffffffffffffffffffffffffffffffffffffffff021916908373ffffffffffffffffffffffffffffffffffffffff1602179055506040820151816002019081610b0e9190611be2565b50606082015181600301556080820151816004019081610b2e9190611be2565b5060a08201518160050160006101000a81548160ff02191690831515021790555060c082015181600601559050508673ffffffffffffffffffffffffffffffffffffffff163373ffffffffffffffffffffffffffffffffffffffff16827f197d9e4ba9493712aa3bd22fa47c547de7a7e3fdd1c002b867bbbd7ac0b1928c898989604051610bbe93929190611cf0565b60405180910390a49695505050505050565b60035481565b60016020528060005260406000206000915090508060000160009054906101000a900473ffffffffffffffffffffffffffffffffffffffff16908060010160009054906101000a900473ffffffffffffffffffffffffffffffffffffffff1690806002018054610c45906116b1565b80601f0160208091040260200160405190810160405280929190818152602001828054610c71906116b1565b8015610cbe5780601f10610c9357610100808354040283529160200191610cbe565b820191906000526020600020905b815481529060010190602001808311610ca157829003601f168201915b505050505090806003015490806004018054610cd9906116b1565b80601f0160208091040260200160405190810160405280929190818152602001828054610d05906116b1565b8015610d525780601f10610d2757610100808354040283529160200191610d52565b820191906000526020600020905b815481529060010190602001808311610d3557829003601f168201915b5050505050908060050160009054906101000a900460ff16908060060154905087565b60008054906101000a900473ffffffffffffffffffffffffffffffffffffffff1673ffffffffffffffffffffffffffffffffffffffff163373ffffffffffffffffffffffffffffffffffffffff1614610e03576040517f08c379a0000000000000000000000000000000000000000000000000000000008152600401610dfa90611d94565b60405180910390fd5b6000600260008373ffffffffffffffffffffffffffffffffffffffff1673ffffffffffffffffffffffffffffffffffffffff16815260200190815260200160002060006101000a81548160ff02191690831515021790555050565b60008054906101000a900473ffffffffffffffffffffffffffffffffffffffff1673ffffffffffffffffffffffffffffffffffffffff163373ffffffffffffffffffffffffffffffffffffffff1614610eec576040517f08c379a0000000000000000000000000000000000000000000000000000000008152600401610ee390611d94565b60405180910390fd5b600073ffffffffffffffffffffffffffffffffffffffff168173ffffffffffffffffffffffffffffffffffffffff1603610f5b576040517f08c379a0000000000000000000000000000000000000000000000000000000008152600401610f5290611e00565b60405180910390fd5b6001600260008373ffffffffffffffffffffffffffffffffffffffff1673ffffffffffffffffffffffffffffffffffffffff16815260200190815260200160002060006101000a81548160ff0219169083151502179055508073ffffffffffffffffffffffffffffffffffffffff167f98733e3bf5d792e3092c41611bfc6e1257e92ee3606413ec61366471eabd9ad960405160405180910390a250565b60008054906101000a900473ffffffffffffffffffffffffffffffffffffffff1681565b60026020528060005260406000206000915054906101000a900460ff1681565b6040518060e00160405280600073ffffffffffffffffffffffffffffffffffffffff168152602001600073ffffffffffffffffffffffffffffffffffffffff168152602001606081526020016000801916815260200160608152602001600015158152602001600081525090565b600080fd5b600080fd5b6000819050919050565b6110c8816110b5565b81146110d357600080fd5b50565b6000813590506110e5816110bf565b92915050565b6000819050919050565b6110fe816110eb565b811461110957600080fd5b50565b60008135905061111b816110f5565b92915050565b60008060408385031215611138576111376110ab565b5b6000611146858286016110d6565b92505060206111578582860161110c565b9150509250929050565b60008115159050919050565b61117681611161565b82525050565b6000602082019050611191600083018461116d565b92915050565b6000602082840312156111ad576111ac6110ab565b5b60006111bb848285016110d6565b91505092915050565b600073ffffffffffffffffffffffffffffffffffffffff82169050919050565b60006111ef826111c4565b9050919050565b6111ff816111e4565b82525050565b600081519050919050565b600082825260208201905092915050565b60005b8381101561123f578082015181840152602081019050611224565b60008484015250505050565b6000601f19601f8301169050919050565b600061126782611205565b6112718185611210565b9350611281818560208601611221565b61128a8161124b565b840191505092915050565b61129e816110eb565b82525050565b6112ad81611161565b82525050565b6112bc816110b5565b82525050565b600060e0830160008301516112da60008601826111f6565b5060208301516112ed60208601826111f6565b5060408301518482036040860152611305828261125c565b915050606083015161131a6060860182611295565b5060808301518482036080860152611332828261125c565b91505060a083015161134760a08601826112a4565b5060c083015161135a60c08601826112b3565b508091505092915050565b6000602082019050818103600083015261137f81846112c2565b905092915050565b611390816111e4565b811461139b57600080fd5b50565b6000813590506113ad81611387565b92915050565b600080fd5b600080fd5b600080fd5b60008083601f8401126113d8576113d76113b3565b5b8235905067ffffffffffffffff8111156113f5576113f46113b8565b5b602083019150836001820283011115611411576114106113bd565b5b9250929050565b60008060008060008060808789031215611435576114346110ab565b5b600061144389828a0161139e565b965050602087013567ffffffffffffffff811115611464576114636110b0565b5b61147089828a016113c2565b9550955050604061148389828a0161110c565b935050606087013567ffffffffffffffff8111156114a4576114a36110b0565b5b6114b089828a016113c2565b92509250509295509295509295565b6114c8816110b5565b82525050565b60006020820190506114e360008301846114bf565b92915050565b6114f2816111e4565b82525050565b600082825260208201905092915050565b600061151482611205565b61151e81856114f8565b935061152e818560208601611221565b6115378161124b565b840191505092915050565b61154b816110eb565b82525050565b600060e082019050611566600083018a6114e9565b61157360208301896114e9565b81810360408301526115858188611509565b90506115946060830187611542565b81810360808301526115a68186611509565b90506115b560a083018561116d565b6115c260c08301846114bf565b98975050505050505050565b6000602082840312156115e4576115e36110ab565b5b60006115f28482850161139e565b91505092915050565b600060208201905061161060008301846114e9565b92915050565b7f43726564656e7469616c20646f6573206e6f7420657869737400000000000000600082015250565b600061164c6019836114f8565b915061165782611616565b602082019050919050565b6000602082019050818103600083015261167b8161163f565b9050919050565b7f4e487b7100000000000000000000000000000000000000000000000000000000600052602260045260246000fd5b600060028204905060018216806116c957607f821691505b6020821081036116dc576116db611682565b5b50919050565b7f4f6e6c79207468652069737375696e67206973737565722063616e207265766f60008201527f6b65000000000000000000000000000000000000000000000000000000000000602082015250565b600061173e6022836114f8565b9150611749826116e2565b604082019050919050565b6000602082019050818103600083015261176d81611731565b9050919050565b7f416c7265616479207265766f6b65640000000000000000000000000000000000600082015250565b60006117aa600f836114f8565b91506117b582611774565b602082019050919050565b600060208201905081810360008301526117d98161179d565b9050919050565b7f4e6f7420616e20617070726f7665642069737375657200000000000000000000600082015250565b60006118166016836114f8565b9150611821826117e0565b602082019050919050565b6000602082019050818103600083015261184581611809565b9050919050565b7f496e76616c696420757365722061646472657373000000000000000000000000600082015250565b60006118826014836114f8565b915061188d8261184c565b602082019050919050565b600060208201905081810360008301526118b181611875565b9050919050565b7f446f63756d656e74206861736820726571756972656400000000000000000000600082015250565b60006118ee6016836114f8565b91506118f9826118b8565b602082019050919050565b6000602082019050818103600083015261191d816118e1565b9050919050565b7f4950465320434944207265717569726564000000000000000000000000000000600082015250565b600061195a6011836114f8565b915061196582611924565b602082019050919050565b600060208201905081810360008301526119898161194d565b9050919050565b7f4e487b7100000000000000000000000000000000000000000000000000000000600052601160045260246000fd5b60006119ca826110b5565b91507fffffffffffffffffffffffffffffffffffffffffffffffffffffffffffffffff82036119fc576119fb611990565b5b600182019050919050565b7f4e487b7100000000000000000000000000000000000000000000000000000000600052604160045260246000fd5b60008190508160005260206000209050919050565b60006020601f8301049050919050565b600082821b905092915050565b600060088302611a987fffffffffffffffffffffffffffffffffffffffffffffffffffffffffffffffff82611a5b565b611aa28683611a5b565b95508019841693508086168417925050509392505050565b6000819050919050565b6000611adf611ada611ad5846110b5565b611aba565b6110b5565b9050919050565b6000819050919050565b611af983611ac4565b611b0d611b0582611ae6565b848454611a68565b825550505050565b600090565b611b22611b15565b611b2d818484611af0565b505050565b5b81811015611b5157611b46600082611b1a565b600181019050611b33565b5050565b601f821115611b9657611b6781611a36565b611b7084611a4b565b81016020851015611b7f578190505b611b93611b8b85611a4b565b830182611b32565b50505b505050565b600082821c905092915050565b6000611bb960001984600802611b9b565b1980831691505092915050565b6000611bd28383611ba8565b9150826002028217905092915050565b611beb82611205565b67ffffffffffffffff811115611c0457611c03611a07565b5b611c0e82546116b1565b611c19828285611b55565b600060209050601f831160018114611c4c5760008415611c3a578287015190505b611c448582611bc6565b865550611cac565b601f198416611c5a86611a36565b60005b82811015611c8257848901518255600182019150602085019450602081019050611c5d565b86831015611c9f5784890151611c9b601f891682611ba8565b8355505b6001600288020188555050505b505050505050565b82818337600083830152505050565b6000611ccf83856114f8565b9350611cdc838584611cb4565b611ce58361124b565b840190509392505050565b60006040820190508181036000830152611d0b818587611cc3565b9050611d1a6020830184611542565b949350505050565b7f4f6e6c792061646d696e2063616e2075736520746869732066756e6374696f6e60008201527f2100000000000000000000000000000000000000000000000000000000000000602082015250565b6000611d7e6021836114f8565b9150611d8982611d22565b604082019050919050565b60006020820190508181036000830152611dad81611d71565b9050919050565b7f496e76616c696420616464726573730000000000000000000000000000000000600082015250565b6000611dea600f836114f8565b9150611df582611db4565b602082019050919050565b60006020820190508181036000830152611e1981611ddd565b905091905056fea2646970667358221220999ac6b2b779081228a446ed3d6bfac65c4d071e788469cb49792d86bfe8a8f064736f6c63430008130033",
  "immutableReferences": {},
  "source": "// SPDX-License-Identifier: MIT\r\npragma solidity ^0.8.18;\r\n\r\n// UniversityCredential Smart Contract\r\n// Group 19: Ba Le Nguyen, Chaolun Cai, Hang Qu, Khac Long Pham, Tung Nguyen\r\n\r\ncontract UniversityCredential \r\n{\r\n    // Set admin once when the contract is deployed\r\n    address public admin;\r\n\r\n    // A credential record to store everything about one issued credential\r\n    struct Credential \r\n    {\r\n        address issuer;         // who issued it, e.g. universities, education institutes, certificate providers \r\n        address user;           // who received it, e.g. students, degree holders, alumnus\r\n        string  credentialType; // type of credential, e.g. \"Diploma\", \"Transcript\"\r\n        bytes32 documentHash;   // keccak256 hash of the off-chain document\r\n        string  ipfsCID;        // IPFS link to the actual document\r\n        bool    isRevoked;      // true if the issuer revoked it\r\n        uint256 issuedAt;       // timestamp of the issuance\r\n    }\r\n\r\n    // Storage for all credentials using credential ID as key and credentialCount to track latest/next ID\r\n    mapping(uint256 => Credential) public credentials;\r\n    \r\n    // Track approved universities using issuer wallet address as key and returns true if approved, false otherwise\r\n    mapping(address => bool) public approvedIssuers;\r\n\r\n    // Credential counter for unique IDs\r\n    uint256 public credentialCount;\r\n\r\n    // Event when admin approves a issuer\r\n    event IssuerApproved(address indexed issuer);\r\n\r\n    // Event when a credential is issued\r\n    event CredentialIssued(\r\n        uint256 indexed credentialId,\r\n        address indexed issuer,\r\n        address indexed user,\r\n        string  credentialType,\r\n        bytes32 documentHash\r\n    );\r\n\r\n    // Event when a credential is revoked\r\n    event CredentialRevoked(uint256 indexed credentialId);\r\n\r\n    // Event when someone verifies a credential\r\n    event CredentialVerified(uint256 indexed credentialId, bool isValid);\r\n\r\n    // Constructor when the contract is deployed\r\n    constructor() {\r\n        admin = msg.sender;\r\n    }\r\n\r\n    //// Admin functions ////\r\n    // Function modifier to check admin permission\r\n    modifier AdminOnly() {\r\n        require(msg.sender == admin, \"Only admin can use this function!\");\r\n        _;\r\n    }\r\n\r\n    // Approve a issuer so it can issue credentials.\r\n    function ApproveIssuers(address issuer) external AdminOnly \r\n    {\r\n        require(issuer != address(0), \"Invalid address\"); // Validate issuer's address\r\n        approvedIssuers[issuer] = true;\r\n        emit IssuerApproved(issuer);\r\n    }\r\n\r\n    // Remove a issuer's approval\r\n    function RevokeIssuers(address issuer) external AdminOnly\r\n    {\r\n        approvedIssuers[issuer] = false;\r\n    }\r\n\r\n    //// Issuance functions ////\r\n    // Issue a new credential for a user\r\n    function IssueCredential(address user, string calldata credentialType, \r\n                                bytes32 documentHash, string calldata ipfsCID) \r\n    external returns (uint256 credentialId) \r\n    {\r\n        require(approvedIssuers[msg.sender], \"Not an approved issuer\"); // Check issuer permission\r\n        require(user != address(0), \"Invalid user address\");            // Validate user address\r\n        require(documentHash != bytes32(0), \"Document hash required\");  // Check document hash\r\n        require(bytes(ipfsCID).length > 0, \"IPFS CID required\");        // Check CID\r\n\r\n        // Assign the next available ID\r\n        credentialId = ++credentialCount;\r\n\r\n        // Store the credential on-chain\r\n        credentials[credentialId] = Credential({\r\n            issuer: msg.sender,\r\n            user: user,\r\n            credentialType: credentialType,\r\n            documentHash: documentHash,\r\n            ipfsCID: ipfsCID,\r\n            isRevoked: false,\r\n            issuedAt: block.timestamp\r\n        });\r\n\r\n        emit CredentialIssued(\r\n            credentialId,\r\n            msg.sender,\r\n            user,\r\n            credentialType,\r\n            documentHash\r\n        );\r\n    }\r\n\r\n    // Revoke an issued credential\r\n    function RevokeCredential(uint256 credentialId) external {\r\n        Credential storage cred = credentials[credentialId];\r\n        require(cred.issuer == msg.sender, \"Only the issuing issuer can revoke\");   // Verify the issuer permission\r\n        require(!cred.isRevoked, \"Already revoked\");                                // Check credential revoke status\r\n        \r\n        // Revoke the credential (The record is still kept on chain)\r\n        cred.isRevoked = true;\r\n        emit CredentialRevoked(credentialId);\r\n    }\r\n\r\n    //// Verification functions ////\r\n    // Verify that a credential is authentic and active\r\n    function VerifyCredential(uint256 credentialId, bytes32 documentHash) external returns (bool isValid) {\r\n        Credential storage cred = credentials[credentialId];\r\n\r\n        require(cred.issuer != address(0), \"Credential does not exist\");    // Validate credential\r\n\r\n        // Valid = hash matches what was issued AND not revoked\r\n        isValid = (cred.documentHash == documentHash) && !cred.isRevoked;\r\n\r\n        emit CredentialVerified(credentialId, isValid);\r\n        return isValid;\r\n    }\r\n\r\n    // Verify that a credential is authentic and active without emitting verification event\r\n    function CheckCredential(uint256 credentialId, bytes32 documentHash) external view returns (bool) {\r\n        Credential storage cred = credentials[credentialId];\r\n        return (cred.documentHash == documentHash) && !cred.isRevoked;\r\n    }\r\n\r\n    // Get all stored details about a credential\r\n    function GetCredential(uint256 credentialId) external view returns (Credential memory) {\r\n        require(credentials[credentialId].issuer != address(0), \"Credential does not exist\");   // Verify that the credetial exists\r\n        return credentials[credentialId];\r\n    }\r\n}",
  "sourcePath": "D:\\Productivity\\Academic\\ASU\\Year 2\\CSE 540 Blockchain Applications\\Project\\Code\\Team19_2026SpringB_CSE540_UniversityCredentialSystem_SmartContractDesign\\contracts\\UniversityCredential.sol",
  "compiler": {
    "name": "solc",
    "version": "0.8.19+commit.7dd6d404.Emscripten.clang"
  },
  "schemaVersion": "3.4.16",
  "updatedAt": "2026-04-10T21:57:16.904Z",
  "networkType": "ethereum",
  "devdoc": {
    "kind": "dev",
    "methods": {},
    "version": 1
  },
  "userdoc": {
    "kind": "user",
    "methods": {},
    "version": 1
  }
}